{
  "_format": "hh-sol-artifact-1",
  "contractName": "RBAC",
  "sourceName": "contracts/RBAC.sol",
  "abi": [
    {
      "inputs": [],
      "stateMutability": "nonpayable",
      "type": "constructor"
    },
    {
      "anonymous": false,
      "inputs": [
        {
          "indexed": true,
          "internalType": "bytes32",
          "name": "role",
          "type": "bytes32"
        },
        {
          "indexed": true,
          "internalType": "bytes32",
          "name": "previousAdminRole",
          "type": "bytes32"
        },
        {
          "indexed": true,
          "internalType": "bytes32",
          "name": "newAdminRole",
          "type": "bytes32"
        }
      ],
      "name": "RoleAdminChanged",
      "type": "event"
    },
    {
      "anonymous": false,
      "inputs": [
        {
          "indexed": true,
          "internalType": "bytes32",
          "name": "role",
          "type": "bytes32"
        },
        {
          "indexed": true,
          "internalType": "address",
          "name": "account",
          "type": "address"
        },
        {
          "indexed": true,
          "internalType": "address",
          "name": "sender",
          "type": "address"
        }
      ],
      "name": "RoleGranted",
      "type": "event"
    },
    {
      "anonymous": false,
      "inputs": [
        {
          "indexed": true,
          "internalType": "bytes32",
          "name": "role",
          "type": "bytes32"
        },
        {
          "indexed": true,
          "internalType": "address",
          "name": "account",
          "type": "address"
        },
        {
          "indexed": true,
          "internalType": "address",
          "name": "sender",
          "type": "address"
        }
      ],
      "name": "RoleRevoked",
      "type": "event"
    },
    {
      "inputs": [],
      "name": "CREATOR",
      "outputs": [
        {
          "internalType": "bytes32",
          "name": "",
          "type": "bytes32"
        }
      ],
      "stateMutability": "view",
      "type": "function"
    },
    {
      "inputs": [],
      "name": "DEFAULT_ADMIN_ROLE",
      "outputs": [
        {
          "internalType": "bytes32",
          "name": "",
          "type": "bytes32"
        }
      ],
      "stateMutability": "view",
      "type": "function"
    },
    {
      "inputs": [
        {
          "internalType": "bytes32",
          "name": "data",
          "type": "bytes32"
        }
      ],
      "name": "createEntry",
      "outputs": [],
      "stateMutability": "nonpayable",
      "type": "function"
    },
    {
      "inputs": [
        {
          "internalType": "uint256",
          "name": "",
          "type": "uint256"
        }
      ],
      "name": "entries",
      "outputs": [
        {
          "internalType": "bytes32",
          "name": "",
          "type": "bytes32"
        }
      ],
      "stateMutability": "view",
      "type": "function"
    },
    {
      "inputs": [
        {
          "internalType": "bytes32",
          "name": "role",
          "type": "bytes32"
        }
      ],
      "name": "getRoleAdmin",
      "outputs": [
        {
          "internalType": "bytes32",
          "name": "",
          "type": "bytes32"
        }
      ],
      "stateMutability": "view",
      "type": "function"
    },
    {
      "inputs": [
        {
          "internalType": "address",
          "name": "_address",
          "type": "address"
        }
      ],
      "name": "grantCreatorRole",
      "outputs": [],
      "stateMutability": "nonpayable",
      "type": "function"
    },
    {
      "inputs": [
        {
          "internalType": "bytes32",
          "name": "role",
          "type": "bytes32"
        },
        {
          "internalType": "address",
          "name": "account",
          "type": "address"
        }
      ],
      "name": "grantRole",
      "outputs": [],
      "stateMutability": "nonpayable",
      "type": "function"
    },
    {
      "inputs": [
        {
          "internalType": "bytes32",
          "name": "role",
          "type": "bytes32"
        },
        {
          "internalType": "address",
          "name": "account",
          "type": "address"
        }
      ],
      "name": "hasRole",
      "outputs": [
        {
          "internalType": "bool",
          "name": "",
          "type": "bool"
        }
      ],
      "stateMutability": "view",
      "type": "function"
    },
    {
      "inputs": [],
      "name": "renounceCreatorRole",
      "outputs": [],
      "stateMutability": "nonpayable",
      "type": "function"
    },
    {
      "inputs": [
        {
          "internalType": "bytes32",
          "name": "role",
          "type": "bytes32"
        },
        {
          "internalType": "address",
          "name": "account",
          "type": "address"
        }
      ],
      "name": "renounceRole",
      "outputs": [],
      "stateMutability": "nonpayable",
      "type": "function"
    },
    {
      "inputs": [
        {
          "internalType": "address",
          "name": "_address",
          "type": "address"
        }
      ],
      "name": "revokeCreatorRole",
      "outputs": [],
      "stateMutability": "nonpayable",
      "type": "function"
    },
    {
      "inputs": [
        {
          "internalType": "bytes32",
          "name": "role",
          "type": "bytes32"
        },
        {
          "internalType": "address",
          "name": "account",
          "type": "address"
        }
      ],
      "name": "revokeRole",
      "outputs": [],
      "stateMutability": "nonpayable",
      "type": "function"
    },
    {
      "inputs": [
        {
          "internalType": "bytes4",
          "name": "interfaceId",
          "type": "bytes4"
        }
      ],
      "name": "supportsInterface",
      "outputs": [
        {
          "internalType": "bool",
          "name": "",
          "type": "bool"
        }
      ],
      "stateMutability": "view",
      "type": "function"
    }
  ],
  "bytecode": "0x608060405234801561001057600080fd5b506100246000801b3361002960201b60201c565b61019b565b610039828261003d60201b60201c565b5050565b61004d828261012960201b60201c565b61012557600160008084815260200190815260200160002060000160008373ffffffffffffffffffffffffffffffffffffffff1673ffffffffffffffffffffffffffffffffffffffff16815260200190815260200160002060006101000a81548160ff0219169083151502179055506100ca61019360201b60201c565b73ffffffffffffffffffffffffffffffffffffffff168173ffffffffffffffffffffffffffffffffffffffff16837f2f8788117e7eff1d82e926ec794901d17c78024a50270940304540a733656f0d60405160405180910390a45b5050565b600080600084815260200190815260200160002060000160008373ffffffffffffffffffffffffffffffffffffffff1673ffffffffffffffffffffffffffffffffffffffff16815260200190815260200160002060009054906101000a900460ff16905092915050565b600033905090565b611160806101aa6000396000f3fe608060405234801561001057600080fd5b50600436106100cf5760003560e01c806391d148541161008c578063b30906d411610066578063b30906d41461020e578063d547741f1461023e578063e3925dea1461025a578063e4fbb60914610264576100cf565b806391d14854146101a457806398795bda146101d4578063a217fddf146101f0576100cf565b806301ffc9a7146100d4578063248a9ca3146101045780632f2ff15d1461013457806336568abe1461015057806345c98a3f1461016c5780634d43e6f014610188575b600080fd5b6100ee60048036038101906100e99190610b22565b610282565b6040516100fb9190610b6a565b60405180910390f35b61011e60048036038101906101199190610bbb565b6102fc565b60405161012b9190610bf7565b60405180910390f35b61014e60048036038101906101499190610c70565b61031b565b005b61016a60048036038101906101659190610c70565b61033c565b005b61018660048036038101906101819190610cb0565b6103bf565b005b6101a2600480360381019061019d9190610cb0565b6103ec565b005b6101be60048036038101906101b99190610c70565b610419565b6040516101cb9190610b6a565b60405180910390f35b6101ee60048036038101906101e99190610bbb565b610483565b005b6101f86104dc565b6040516102059190610bf7565b60405180910390f35b61022860048036038101906102239190610d13565b6104e3565b6040516102359190610bf7565b60405180910390f35b61025860048036038101906102539190610c70565b6104fb565b005b61026261051c565b005b61026c610548565b6040516102799190610bf7565b60405180910390f35b60007f7965db0b000000000000000000000000000000000000000000000000000000007bffffffffffffffffffffffffffffffffffffffffffffffffffffffff1916827bffffffffffffffffffffffffffffffffffffffffffffffffffffffff191614806102f557506102f48261056c565b5b9050919050565b6000806000838152602001908152602001600020600101549050919050565b610324826102fc565b61032d816105d6565b61033783836105ea565b505050565b6103446106ca565b73ffffffffffffffffffffffffffffffffffffffff168173ffffffffffffffffffffffffffffffffffffffff16146103b1576040517f08c379a00000000000000000000000000000000000000000000000000000000081526004016103a890610dc3565b60405180910390fd5b6103bb82826106d2565b5050565b6103e97f3c2519c4487d47714872f92cf90a50c25f5deaec2789dc2a497b1272df611db6826104fb565b50565b6104167f3c2519c4487d47714872f92cf90a50c25f5deaec2789dc2a497b1272df611db68261031b565b50565b600080600084815260200190815260200160002060000160008373ffffffffffffffffffffffffffffffffffffffff1673ffffffffffffffffffffffffffffffffffffffff16815260200190815260200160002060009054906101000a900460ff16905092915050565b7f3c2519c4487d47714872f92cf90a50c25f5deaec2789dc2a497b1272df611db66104ad816105d6565b81600260006104bc60016107b3565b8152602001908152602001600020819055506104d860016107c1565b5050565b6000801b81565b60026020528060005260406000206000915090505481565b610504826102fc565b61050d816105d6565b61051783836106d2565b505050565b6105467f3c2519c4487d47714872f92cf90a50c25f5deaec2789dc2a497b1272df611db63361033c565b565b7f3c2519c4487d47714872f92cf90a50c25f5deaec2789dc2a497b1272df611db681565b60007f01ffc9a7000000000000000000000000000000000000000000000000000000007bffffffffffffffffffffffffffffffffffffffffffffffffffffffff1916827bffffffffffffffffffffffffffffffffffffffffffffffffffffffff1916149050919050565b6105e7816105e26106ca565b6107d7565b50565b6105f48282610419565b6106c657600160008084815260200190815260200160002060000160008373ffffffffffffffffffffffffffffffffffffffff1673ffffffffffffffffffffffffffffffffffffffff16815260200190815260200160002060006101000a81548160ff02191690831515021790555061066b6106ca565b73ffffffffffffffffffffffffffffffffffffffff168173ffffffffffffffffffffffffffffffffffffffff16837f2f8788117e7eff1d82e926ec794901d17c78024a50270940304540a733656f0d60405160405180910390a45b5050565b600033905090565b6106dc8282610419565b156107af57600080600084815260200190815260200160002060000160008373ffffffffffffffffffffffffffffffffffffffff1673ffffffffffffffffffffffffffffffffffffffff16815260200190815260200160002060006101000a81548160ff0219169083151502179055506107546106ca565b73ffffffffffffffffffffffffffffffffffffffff168173ffffffffffffffffffffffffffffffffffffffff16837ff6391f5c32d9c69d2a47ea670b442974b53935d1edc7fd64eb21e047a839171b60405160405180910390a45b5050565b600081600001549050919050565b6001816000016000828254019250508190555050565b6107e18282610419565b610858576107ee8161085c565b6107fc8360001c6020610889565b60405160200161080d929190610eec565b6040516020818303038152906040526040517f08c379a000000000000000000000000000000000000000000000000000000000815260040161084f9190610f70565b60405180910390fd5b5050565b60606108828273ffffffffffffffffffffffffffffffffffffffff16601460ff16610889565b9050919050565b60606000600283600261089c9190610fc1565b6108a69190611003565b67ffffffffffffffff8111156108bf576108be611037565b5b6040519080825280601f01601f1916602001820160405280156108f15781602001600182028036833780820191505090505b5090507f30000000000000000000000000000000000000000000000000000000000000008160008151811061092957610928611066565b5b60200101907effffffffffffffffffffffffffffffffffffffffffffffffffffffffffffff1916908160001a9053507f78000000000000000000000000000000000000000000000000000000000000008160018151811061098d5761098c611066565b5b60200101907effffffffffffffffffffffffffffffffffffffffffffffffffffffffffffff1916908160001a905350600060018460026109cd9190610fc1565b6109d79190611003565b90505b6001811115610a77577f3031323334353637383961626364656600000000000000000000000000000000600f861660108110610a1957610a18611066565b5b1a60f81b828281518110610a3057610a2f611066565b5b60200101907effffffffffffffffffffffffffffffffffffffffffffffffffffffffffffff1916908160001a905350600485901c945080610a7090611095565b90506109da565b5060008414610abb576040517f08c379a0000000000000000000000000000000000000000000000000000000008152600401610ab29061110a565b60405180910390fd5b8091505092915050565b600080fd5b60007fffffffff0000000000000000000000000000000000000000000000000000000082169050919050565b610aff81610aca565b8114610b0a57600080fd5b50565b600081359050610b1c81610af6565b92915050565b600060208284031215610b3857610b37610ac5565b5b6000610b4684828501610b0d565b91505092915050565b60008115159050919050565b610b6481610b4f565b82525050565b6000602082019050610b7f6000830184610b5b565b92915050565b6000819050919050565b610b9881610b85565b8114610ba357600080fd5b50565b600081359050610bb581610b8f565b92915050565b600060208284031215610bd157610bd0610ac5565b5b6000610bdf84828501610ba6565b91505092915050565b610bf181610b85565b82525050565b6000602082019050610c0c6000830184610be8565b92915050565b600073ffffffffffffffffffffffffffffffffffffffff82169050919050565b6000610c3d82610c12565b9050919050565b610c4d81610c32565b8114610c5857600080fd5b50565b600081359050610c6a81610c44565b92915050565b60008060408385031215610c8757610c86610ac5565b5b6000610c9585828601610ba6565b9250506020610ca685828601610c5b565b9150509250929050565b600060208284031215610cc657610cc5610ac5565b5b6000610cd484828501610c5b565b91505092915050565b6000819050919050565b610cf081610cdd565b8114610cfb57600080fd5b50565b600081359050610d0d81610ce7565b92915050565b600060208284031215610d2957610d28610ac5565b5b6000610d3784828501610cfe565b91505092915050565b600082825260208201905092915050565b7f416363657373436f6e74726f6c3a2063616e206f6e6c792072656e6f756e636560008201527f20726f6c657320666f722073656c660000000000000000000000000000000000602082015250565b6000610dad602f83610d40565b9150610db882610d51565b604082019050919050565b60006020820190508181036000830152610ddc81610da0565b9050919050565b600081905092915050565b7f416363657373436f6e74726f6c3a206163636f756e7420000000000000000000600082015250565b6000610e24601783610de3565b9150610e2f82610dee565b601782019050919050565b600081519050919050565b60005b83811015610e63578082015181840152602081019050610e48565b60008484015250505050565b6000610e7a82610e3a565b610e848185610de3565b9350610e94818560208601610e45565b80840191505092915050565b7f206973206d697373696e6720726f6c6520000000000000000000000000000000600082015250565b6000610ed6601183610de3565b9150610ee182610ea0565b601182019050919050565b6000610ef782610e17565b9150610f038285610e6f565b9150610f0e82610ec9565b9150610f1a8284610e6f565b91508190509392505050565b6000601f19601f8301169050919050565b6000610f4282610e3a565b610f4c8185610d40565b9350610f5c818560208601610e45565b610f6581610f26565b840191505092915050565b60006020820190508181036000830152610f8a8184610f37565b905092915050565b7f4e487b7100000000000000000000000000000000000000000000000000000000600052601160045260246000fd5b6000610fcc82610cdd565b9150610fd783610cdd565b9250828202610fe581610cdd565b91508282048414831517610ffc57610ffb610f92565b5b5092915050565b600061100e82610cdd565b915061101983610cdd565b925082820190508082111561103157611030610f92565b5b92915050565b7f4e487b7100000000000000000000000000000000000000000000000000000000600052604160045260246000fd5b7f4e487b7100000000000000000000000000000000000000000000000000000000600052603260045260246000fd5b60006110a082610cdd565b9150600082036110b3576110b2610f92565b5b600182039050919050565b7f537472696e67733a20686578206c656e67746820696e73756666696369656e74600082015250565b60006110f4602083610d40565b91506110ff826110be565b602082019050919050565b60006020820190508181036000830152611123816110e7565b905091905056fea2646970667358221220a15583694e6467dc03f0a96195cd663e24f39f096f10645db41d30ff174ef8ab64736f6c63430008110033",
  "linkReferences": {},
  "deployedLinkReferences": {}
}